{
  "contractName": "TodoList",
  "abi": [
    {
      "inputs": [],
      "stateMutability": "nonpayable",
      "type": "constructor"
    },
    {
      "anonymous": false,
      "inputs": [
        {
          "indexed": false,
          "internalType": "string",
          "name": "task",
          "type": "string"
        },
        {
          "indexed": false,
          "internalType": "uint256",
          "name": "taskNumber",
          "type": "uint256"
        }
      ],
      "name": "TaskCreated",
      "type": "event"
    },
    {
      "inputs": [],
      "name": "taskCount",
      "outputs": [
        {
          "internalType": "uint256",
          "name": "",
          "type": "uint256"
        }
      ],
      "stateMutability": "view",
      "type": "function",
      "constant": true
    },
    {
      "inputs": [
        {
          "internalType": "uint256",
          "name": "",
          "type": "uint256"
        }
      ],
      "name": "todos",
      "outputs": [
        {
          "internalType": "string",
          "name": "taskName",
          "type": "string"
        },
        {
          "internalType": "bool",
          "name": "isComplete",
          "type": "bool"
        }
      ],
      "stateMutability": "view",
      "type": "function",
      "constant": true
    },
    {
      "inputs": [
        {
          "internalType": "string",
          "name": "_taskName",
          "type": "string"
        }
      ],
      "name": "createTask",
      "outputs": [],
      "stateMutability": "nonpayable",
      "type": "function"
    }
  ],
  "bytecode": "0x608060405234801561001057600080fd5b506000808190555061091c806100276000396000f3fe608060405234801561001057600080fd5b50600436106100415760003560e01c8063111002aa14610046578063b6cb58a514610062578063bc8bc2b414610080575b600080fd5b610060600480360381019061005b919061038d565b6100b1565b005b61006a610174565b60405161007791906103ef565b60405180910390f35b61009a60048036038101906100959190610436565b61017a565b6040516100a89291906104fd565b60405180910390f35b604051806040016040528082815260200160001515815250600160008060008154809291906100df9061055c565b919050558152602001908152602001600020600082015181600001908161010691906107b0565b5060208201518160010160006101000a81548160ff0219169083151502179055509050507fed1d390c812a65783a09786b88b832ef75bb16882fbc56eeea9bf61a4c1a8ac781600160005461015b9190610882565b6040516101699291906108b6565b60405180910390a150565b60005481565b600160205280600052604060002060009150905080600001805461019d906105d3565b80601f01602080910402602001604051908101604052809291908181526020018280546101c9906105d3565b80156102165780601f106101eb57610100808354040283529160200191610216565b820191906000526020600020905b8154815290600101906020018083116101f957829003601f168201915b5050505050908060010160009054906101000a900460ff16905082565b6000604051905090565b600080fd5b600080fd5b600080fd5b600080fd5b6000601f19601f8301169050919050565b7f4e487b7100000000000000000000000000000000000000000000000000000000600052604160045260246000fd5b61029a82610251565b810181811067ffffffffffffffff821117156102b9576102b8610262565b5b80604052505050565b60006102cc610233565b90506102d88282610291565b919050565b600067ffffffffffffffff8211156102f8576102f7610262565b5b61030182610251565b9050602081019050919050565b82818337600083830152505050565b600061033061032b846102dd565b6102c2565b90508281526020810184848401111561034c5761034b61024c565b5b61035784828561030e565b509392505050565b600082601f83011261037457610373610247565b5b813561038484826020860161031d565b91505092915050565b6000602082840312156103a3576103a261023d565b5b600082013567ffffffffffffffff8111156103c1576103c0610242565b5b6103cd8482850161035f565b91505092915050565b6000819050919050565b6103e9816103d6565b82525050565b600060208201905061040460008301846103e0565b92915050565b610413816103d6565b811461041e57600080fd5b50565b6000813590506104308161040a565b92915050565b60006020828403121561044c5761044b61023d565b5b600061045a84828501610421565b91505092915050565b600081519050919050565b600082825260208201905092915050565b60005b8381101561049d578082015181840152602081019050610482565b60008484015250505050565b60006104b482610463565b6104be818561046e565b93506104ce81856020860161047f565b6104d781610251565b840191505092915050565b60008115159050919050565b6104f7816104e2565b82525050565b6000604082019050818103600083015261051781856104a9565b905061052660208301846104ee565b9392505050565b7f4e487b7100000000000000000000000000000000000000000000000000000000600052601160045260246000fd5b6000610567826103d6565b91507fffffffffffffffffffffffffffffffffffffffffffffffffffffffffffffffff82036105995761059861052d565b5b600182019050919050565b7f4e487b7100000000000000000000000000000000000000000000000000000000600052602260045260246000fd5b600060028204905060018216806105eb57607f821691505b6020821081036105fe576105fd6105a4565b5b50919050565b60008190508160005260206000209050919050565b60006020601f8301049050919050565b600082821b905092915050565b6000600883026106667fffffffffffffffffffffffffffffffffffffffffffffffffffffffffffffffff82610629565b6106708683610629565b95508019841693508086168417925050509392505050565b6000819050919050565b60006106ad6106a86106a3846103d6565b610688565b6103d6565b9050919050565b6000819050919050565b6106c783610692565b6106db6106d3826106b4565b848454610636565b825550505050565b600090565b6106f06106e3565b6106fb8184846106be565b505050565b5b8181101561071f576107146000826106e8565b600181019050610701565b5050565b601f8211156107645761073581610604565b61073e84610619565b8101602085101561074d578190505b61076161075985610619565b830182610700565b50505b505050565b600082821c905092915050565b600061078760001984600802610769565b1980831691505092915050565b60006107a08383610776565b9150826002028217905092915050565b6107b982610463565b67ffffffffffffffff8111156107d2576107d1610262565b5b6107dc82546105d3565b6107e7828285610723565b600060209050601f83116001811461081a5760008415610808578287015190505b6108128582610794565b86555061087a565b601f19841661082886610604565b60005b828110156108505784890151825560018201915060208501945060208101905061082b565b8683101561086d5784890151610869601f891682610776565b8355505b6001600288020188555050505b505050505050565b600061088d826103d6565b9150610898836103d6565b92508282039050818111156108b0576108af61052d565b5b92915050565b600060408201905081810360008301526108d081856104a9565b90506108df60208301846103e0565b939250505056fea264697066735822122041d057d152c5b41b90f997da0598bfa47a86b8662725307c55bda8f85721879f64736f6c63430008130033",
  "immutableReferences": {},
  "source": "//SPDX-License-Identifier: GPL-3.0\n\npragma  solidity >=0.6.2 <0.9.0;\n\ncontract TodoList{\n    uint public taskCount;\n\n    struct Task{\n        string taskName;\n        bool isComplete;\n    }\n\n    mapping (uint=>Task) public  todos;\n\n    event TaskCreated(string task, uint taskNumber);\n\n    constructor()  {\n        taskCount = 0;\n    }\n\n    function createTask(string memory _taskName) public {\n        todos[taskCount++] = Task(_taskName, false);\n        emit TaskCreated(_taskName, taskCount-1);\n    }\n}",
  "sourcePath": "/Users/mac/dapp/note_dapp/contracts/TodoList.sol",
  "compiler": {
    "name": "solc",
    "version": "0.8.19+commit.7dd6d404.Emscripten.clang"
  },
  "schemaVersion": "3.4.15",
  "updatedAt": "2023-08-28T11:04:52.264Z",
  "networkType": "ethereum",
  "devdoc": {
    "kind": "dev",
    "methods": {},
    "version": 1
  },
  "userdoc": {
    "kind": "user",
    "methods": {},
    "version": 1
  }
}