{
  "contractName": "TodoList",
  "abi": [
    {
      "inputs": [],
      "stateMutability": "nonpayable",
      "type": "constructor"
    },
    {
      "anonymous": false,
      "inputs": [
        {
          "indexed": false,
          "internalType": "string",
          "name": "task",
          "type": "string"
        },
        {
          "indexed": false,
          "internalType": "uint256",
          "name": "taskNumber",
          "type": "uint256"
        }
      ],
      "name": "TaskCreated",
      "type": "event"
    },
    {
      "anonymous": false,
      "inputs": [
        {
          "indexed": false,
          "internalType": "uint256",
          "name": "taskNumber",
          "type": "uint256"
        }
      ],
      "name": "TaskDeleted",
      "type": "event"
    },
    {
      "anonymous": false,
      "inputs": [
        {
          "indexed": false,
          "internalType": "uint256",
          "name": "taskNumber",
          "type": "uint256"
        }
      ],
      "name": "TaskModified",
      "type": "event"
    },
    {
      "inputs": [],
      "name": "taskCount",
      "outputs": [
        {
          "internalType": "uint256",
          "name": "",
          "type": "uint256"
        }
      ],
      "stateMutability": "view",
      "type": "function",
      "constant": true
    },
    {
      "inputs": [
        {
          "internalType": "uint256",
          "name": "index",
          "type": "uint256"
        }
      ],
      "name": "todos",
      "outputs": [
        {
          "internalType": "string",
          "name": "taskName",
          "type": "string"
        },
        {
          "internalType": "bool",
          "name": "isComplete",
          "type": "bool"
        }
      ],
      "stateMutability": "view",
      "type": "function",
      "constant": true
    },
    {
      "inputs": [
        {
          "internalType": "string",
          "name": "_taskName",
          "type": "string"
        }
      ],
      "name": "createTask",
      "outputs": [],
      "stateMutability": "nonpayable",
      "type": "function"
    },
    {
      "inputs": [
        {
          "internalType": "uint256",
          "name": "index",
          "type": "uint256"
        }
      ],
      "name": "deleteTask",
      "outputs": [],
      "stateMutability": "nonpayable",
      "type": "function"
    },
    {
      "inputs": [
        {
          "internalType": "uint256",
          "name": "index",
          "type": "uint256"
        },
        {
          "internalType": "string",
          "name": "_taskName",
          "type": "string"
        },
        {
          "internalType": "bool",
          "name": "isComplete",
          "type": "bool"
        }
      ],
      "name": "editTodo",
      "outputs": [],
      "stateMutability": "nonpayable",
      "type": "function"
    }
  ],
  "bytecode": "0x608060405234801561001057600080fd5b5060008081905550610bb5806100276000396000f3fe608060405234801561001057600080fd5b50600436106100575760003560e01c8063111002aa1461005c578063560f319214610078578063b6cb58a514610094578063bc8bc2b4146100b2578063ce03dec8146100e3575b600080fd5b61007660048036038101906100719190610562565b6100ff565b005b610092600480360381019061008d91906105e1565b6101c2565b005b61009c61024d565b6040516100a9919061061d565b60405180910390f35b6100cc60048036038101906100c791906105e1565b610253565b6040516100da9291906106d2565b60405180910390f35b6100fd60048036038101906100f8919061072e565b61030c565b005b6040518060400160405280828152602001600015158152506001600080600081548092919061012d906107cc565b91905055815260200190815260200160002060008201518160000190816101549190610a20565b5060208201518160010160006101000a81548160ff0219169083151502179055509050507fed1d390c812a65783a09786b88b832ef75bb16882fbc56eeea9bf61a4c1a8ac78160016000546101a99190610af2565b6040516101b7929190610b26565b60405180910390a150565b60016000828152602001908152602001600020600080820160006101e691906103ab565b6001820160006101000a81549060ff0219169055505060008081548092919061020e90610b56565b91905055507fd078b251d950cc55c44340be1db732337ef4939a76e1367ee271ad2cb19c46af81604051610242919061061d565b60405180910390a150565b60005481565b600160205280600052604060002060009150905080600001805461027690610843565b80601f01602080910402602001604051908101604052809291908181526020018280546102a290610843565b80156102ef5780601f106102c4576101008083540402835291602001916102ef565b820191906000526020600020905b8154815290600101906020018083116102d257829003601f168201915b5050505050908060010160009054906101000a900460ff16905082565b604051806040016040528083815260200182151581525060016000858152602001908152602001600020600082015181600001908161034b9190610a20565b5060208201518160010160006101000a81548160ff0219169083151502179055509050507fa8a88bfabf9f00f3193ec0aae76bdbb5b01c97fbeb8bc256e313c9f9bd6e485c8360405161039e919061061d565b60405180910390a1505050565b5080546103b790610843565b6000825580601f106103c957506103e8565b601f0160209004906000526020600020908101906103e791906103eb565b5b50565b5b808211156104045760008160009055506001016103ec565b5090565b6000604051905090565b600080fd5b600080fd5b600080fd5b600080fd5b6000601f19601f8301169050919050565b7f4e487b7100000000000000000000000000000000000000000000000000000000600052604160045260246000fd5b61046f82610426565b810181811067ffffffffffffffff8211171561048e5761048d610437565b5b80604052505050565b60006104a1610408565b90506104ad8282610466565b919050565b600067ffffffffffffffff8211156104cd576104cc610437565b5b6104d682610426565b9050602081019050919050565b82818337600083830152505050565b6000610505610500846104b2565b610497565b90508281526020810184848401111561052157610520610421565b5b61052c8482856104e3565b509392505050565b600082601f8301126105495761054861041c565b5b81356105598482602086016104f2565b91505092915050565b60006020828403121561057857610577610412565b5b600082013567ffffffffffffffff81111561059657610595610417565b5b6105a284828501610534565b91505092915050565b6000819050919050565b6105be816105ab565b81146105c957600080fd5b50565b6000813590506105db816105b5565b92915050565b6000602082840312156105f7576105f6610412565b5b6000610605848285016105cc565b91505092915050565b610617816105ab565b82525050565b6000602082019050610632600083018461060e565b92915050565b600081519050919050565b600082825260208201905092915050565b60005b83811015610672578082015181840152602081019050610657565b60008484015250505050565b600061068982610638565b6106938185610643565b93506106a3818560208601610654565b6106ac81610426565b840191505092915050565b60008115159050919050565b6106cc816106b7565b82525050565b600060408201905081810360008301526106ec818561067e565b90506106fb60208301846106c3565b9392505050565b61070b816106b7565b811461071657600080fd5b50565b60008135905061072881610702565b92915050565b60008060006060848603121561074757610746610412565b5b6000610755868287016105cc565b935050602084013567ffffffffffffffff81111561077657610775610417565b5b61078286828701610534565b925050604061079386828701610719565b9150509250925092565b7f4e487b7100000000000000000000000000000000000000000000000000000000600052601160045260246000fd5b60006107d7826105ab565b91507fffffffffffffffffffffffffffffffffffffffffffffffffffffffffffffffff82036108095761080861079d565b5b600182019050919050565b7f4e487b7100000000000000000000000000000000000000000000000000000000600052602260045260246000fd5b6000600282049050600182168061085b57607f821691505b60208210810361086e5761086d610814565b5b50919050565b60008190508160005260206000209050919050565b60006020601f8301049050919050565b600082821b905092915050565b6000600883026108d67fffffffffffffffffffffffffffffffffffffffffffffffffffffffffffffffff82610899565b6108e08683610899565b95508019841693508086168417925050509392505050565b6000819050919050565b600061091d610918610913846105ab565b6108f8565b6105ab565b9050919050565b6000819050919050565b61093783610902565b61094b61094382610924565b8484546108a6565b825550505050565b600090565b610960610953565b61096b81848461092e565b505050565b5b8181101561098f57610984600082610958565b600181019050610971565b5050565b601f8211156109d4576109a581610874565b6109ae84610889565b810160208510156109bd578190505b6109d16109c985610889565b830182610970565b50505b505050565b600082821c905092915050565b60006109f7600019846008026109d9565b1980831691505092915050565b6000610a1083836109e6565b9150826002028217905092915050565b610a2982610638565b67ffffffffffffffff811115610a4257610a41610437565b5b610a4c8254610843565b610a57828285610993565b600060209050601f831160018114610a8a5760008415610a78578287015190505b610a828582610a04565b865550610aea565b601f198416610a9886610874565b60005b82811015610ac057848901518255600182019150602085019450602081019050610a9b565b86831015610add5784890151610ad9601f8916826109e6565b8355505b6001600288020188555050505b505050505050565b6000610afd826105ab565b9150610b08836105ab565b9250828203905081811115610b2057610b1f61079d565b5b92915050565b60006040820190508181036000830152610b40818561067e565b9050610b4f602083018461060e565b9392505050565b6000610b61826105ab565b915060008203610b7457610b7361079d565b5b60018203905091905056fea264697066735822122081cf5c0b9a59bc0421fa6b10219d078f9a6e547d3562e8ed2fd0e88bf894baab64736f6c63430008130033",
  "immutableReferences": {},
  "source": "//SPDX-License-Identifier: GPL-3.0\n\npragma  solidity >=0.6.2 <0.9.0;\n\ncontract TodoList{\n    uint public taskCount;\n\n    struct Task{\n        string taskName;\n        bool isComplete;\n    }\n\n    mapping (uint index =>Task) public  todos;\n\n    event TaskCreated(string task, uint taskNumber);\n    event TaskDeleted(uint taskNumber);\n    event TaskModified(uint taskNumber);\n\n    constructor()  {\n        taskCount = 0;\n    }\n\n    function createTask(string memory _taskName) public {\n        todos[taskCount++] = Task(_taskName, false);\n       emit TaskCreated(_taskName, taskCount-1);\n    }\n\n    function deleteTask(uint index) public {\n        delete todos[index];\n        taskCount--;\n        emit  TaskDeleted(index);\n    }\n\n\n    function editTodo(uint index, string memory _taskName, bool isComplete) public {\n        todos[index] = Task(_taskName, isComplete);\n        emit  TaskModified(index);\n    }\n}",
  "sourcePath": "/Users/mac/dapp/note_dapp/contracts/TodoList.sol",
  "compiler": {
    "name": "solc",
    "version": "0.8.19+commit.7dd6d404.Emscripten.clang"
  },
  "schemaVersion": "3.4.15",
  "updatedAt": "2023-08-30T12:02:20.417Z",
  "networkType": "ethereum",
  "devdoc": {
    "kind": "dev",
    "methods": {},
    "version": 1
  },
  "userdoc": {
    "kind": "user",
    "methods": {},
    "version": 1
  }
}